{
  "_format": "hh-sol-artifact-1",
  "contractName": "LandAdministration",
  "sourceName": "contracts/LandAdministration.sol",
  "abi": [
    {
      "inputs": [],
      "stateMutability": "nonpayable",
      "type": "constructor"
    },
    {
      "inputs": [
        {
          "internalType": "uint256",
          "name": "tokenId",
          "type": "uint256"
        }
      ],
      "name": "nonTransferable",
      "type": "error"
    },
    {
      "inputs": [
        {
          "internalType": "uint256",
          "name": "tokenId",
          "type": "uint256"
        },
        {
          "internalType": "address",
          "name": "from",
          "type": "address"
        }
      ],
      "name": "notOwnerOrMaster",
      "type": "error"
    },
    {
      "inputs": [
        {
          "internalType": "uint256",
          "name": "tokenId",
          "type": "uint256"
        },
        {
          "internalType": "address",
          "name": "from",
          "type": "address"
        },
        {
          "internalType": "uint16",
          "name": "owningShare",
          "type": "uint16"
        },
        {
          "internalType": "uint16",
          "name": "transferingShare",
          "type": "uint16"
        }
      ],
      "name": "notOwningBigEnoughShare",
      "type": "error"
    },
    {
      "inputs": [
        {
          "internalType": "address",
          "name": "who",
          "type": "address"
        }
      ],
      "name": "notTrustedMember",
      "type": "error"
    },
    {
      "inputs": [
        {
          "internalType": "uint256",
          "name": "",
          "type": "uint256"
        }
      ],
      "name": "PeopleWhoPostedLand",
      "outputs": [
        {
          "internalType": "address",
          "name": "seller",
          "type": "address"
        },
        {
          "internalType": "uint256",
          "name": "tokenId",
          "type": "uint256"
        },
        {
          "internalType": "uint16",
          "name": "share",
          "type": "uint16"
        },
        {
          "internalType": "uint256",
          "name": "amount",
          "type": "uint256"
        }
      ],
      "stateMutability": "view",
      "type": "function"
    },
    {
      "inputs": [
        {
          "internalType": "address",
          "name": "government",
          "type": "address"
        }
      ],
      "name": "addGovt",
      "outputs": [],
      "stateMutability": "nonpayable",
      "type": "function"
    },
    {
      "inputs": [
        {
          "internalType": "address",
          "name": "personi",
          "type": "address"
        },
        {
          "internalType": "string",
          "name": "name",
          "type": "string"
        },
        {
          "internalType": "uint256",
          "name": "aadharNumber",
          "type": "uint256"
        },
        {
          "internalType": "uint256",
          "name": "phoneNumber",
          "type": "uint256"
        },
        {
          "internalType": "string",
          "name": "email",
          "type": "string"
        }
      ],
      "name": "addtrustedmembers",
      "outputs": [],
      "stateMutability": "nonpayable",
      "type": "function"
    },
    {
      "inputs": [
        {
          "internalType": "uint256",
          "name": "tokenId",
          "type": "uint256"
        },
        {
          "internalType": "address",
          "name": "seller",
          "type": "address"
        }
      ],
      "name": "buyLand",
      "outputs": [],
      "stateMutability": "payable",
      "type": "function"
    },
    {
      "inputs": [
        {
          "internalType": "address",
          "name": "who",
          "type": "address"
        }
      ],
      "name": "checkIfTrusted",
      "outputs": [
        {
          "internalType": "bool",
          "name": "",
          "type": "bool"
        }
      ],
      "stateMutability": "view",
      "type": "function"
    },
    {
      "inputs": [
        {
          "internalType": "address",
          "name": "owner",
          "type": "address"
        }
      ],
      "name": "getOwnedTokensAndShares",
      "outputs": [
        {
          "internalType": "uint256[]",
          "name": "tokenIds",
          "type": "uint256[]"
        },
        {
          "internalType": "uint16[]",
          "name": "shares",
          "type": "uint16[]"
        }
      ],
      "stateMutability": "view",
      "type": "function"
    },
    {
      "inputs": [],
      "name": "getPostedLandDetails",
      "outputs": [
        {
          "components": [
            {
              "internalType": "address",
              "name": "seller",
              "type": "address"
            },
            {
              "internalType": "uint256",
              "name": "tokenId",
              "type": "uint256"
            },
            {
              "internalType": "uint16",
              "name": "share",
              "type": "uint16"
            },
            {
              "internalType": "uint256",
              "name": "amount",
              "type": "uint256"
            }
          ],
          "internalType": "struct LandAdministration.PeopleWhoPostedLandStruct[]",
          "name": "",
          "type": "tuple[]"
        }
      ],
      "stateMutability": "view",
      "type": "function"
    },
    {
      "inputs": [],
      "name": "getTotalToken",
      "outputs": [
        {
          "internalType": "uint256",
          "name": "",
          "type": "uint256"
        }
      ],
      "stateMutability": "view",
      "type": "function"
    },
    {
      "inputs": [
        {
          "internalType": "uint256",
          "name": "",
          "type": "uint256"
        },
        {
          "internalType": "address",
          "name": "",
          "type": "address"
        }
      ],
      "name": "hasPosted",
      "outputs": [
        {
          "internalType": "bool",
          "name": "",
          "type": "bool"
        }
      ],
      "stateMutability": "view",
      "type": "function"
    },
    {
      "inputs": [
        {
          "internalType": "uint256",
          "name": "tokenId",
          "type": "uint256"
        }
      ],
      "name": "isTransferable",
      "outputs": [
        {
          "internalType": "bool",
          "name": "",
          "type": "bool"
        }
      ],
      "stateMutability": "view",
      "type": "function"
    },
    {
      "inputs": [
        {
          "internalType": "address",
          "name": "to",
          "type": "address"
        },
        {
          "internalType": "string",
          "name": "district",
          "type": "string"
        },
        {
          "internalType": "string",
          "name": "taluk",
          "type": "string"
        },
        {
          "internalType": "string",
          "name": "village",
          "type": "string"
        },
        {
          "internalType": "uint256",
          "name": "pattaNumber",
          "type": "uint256"
        },
        {
          "internalType": "uint16",
          "name": "share",
          "type": "uint16"
        }
      ],
      "name": "mint",
      "outputs": [],
      "stateMutability": "nonpayable",
      "type": "function"
    },
    {
      "inputs": [
        {
          "internalType": "uint256",
          "name": "tokenId",
          "type": "uint256"
        }
      ],
      "name": "ownersOf",
      "outputs": [
        {
          "internalType": "address[]",
          "name": "",
          "type": "address[]"
        }
      ],
      "stateMutability": "view",
      "type": "function"
    },
    {
      "inputs": [
        {
          "internalType": "uint256",
          "name": "tokenId",
          "type": "uint256"
        },
        {
          "internalType": "uint256",
          "name": "amount",
          "type": "uint256"
        },
        {
          "internalType": "uint16",
          "name": "share",
          "type": "uint16"
        }
      ],
      "name": "postLand",
      "outputs": [],
      "stateMutability": "nonpayable",
      "type": "function"
    },
    {
      "inputs": [
        {
          "internalType": "uint256",
          "name": "tokenId",
          "type": "uint256"
        }
      ],
      "name": "registeredLandDetails",
      "outputs": [
        {
          "components": [
            {
              "internalType": "string",
              "name": "district",
              "type": "string"
            },
            {
              "internalType": "string",
              "name": "taluk",
              "type": "string"
            },
            {
              "internalType": "string",
              "name": "village",
              "type": "string"
            },
            {
              "internalType": "uint256",
              "name": "pattaNumber",
              "type": "uint256"
            }
          ],
          "internalType": "struct LandAdministration.land",
          "name": "",
          "type": "tuple"
        }
      ],
      "stateMutability": "view",
      "type": "function"
    },
    {
      "inputs": [
        {
          "internalType": "uint256",
          "name": "tokenId",
          "type": "uint256"
        },
        {
          "internalType": "bool",
          "name": "value",
          "type": "bool"
        }
      ],
      "name": "setTransferable",
      "outputs": [],
      "stateMutability": "payable",
      "type": "function"
    },
    {
      "inputs": [
        {
          "internalType": "uint256",
          "name": "tokenId",
          "type": "uint256"
        },
        {
          "internalType": "address",
          "name": "owner",
          "type": "address"
        }
      ],
      "name": "shareOf",
      "outputs": [
        {
          "internalType": "uint16",
          "name": "",
          "type": "uint16"
        }
      ],
      "stateMutability": "view",
      "type": "function"
    },
    {
      "inputs": [
        {
          "internalType": "address",
          "name": "from",
          "type": "address"
        },
        {
          "internalType": "address",
          "name": "to",
          "type": "address"
        },
        {
          "internalType": "uint256",
          "name": "tokenId",
          "type": "uint256"
        },
        {
          "internalType": "uint16",
          "name": "share",
          "type": "uint16"
        }
      ],
      "name": "transferFrom",
      "outputs": [],
      "stateMutability": "payable",
      "type": "function"
    },
    {
      "inputs": [
        {
          "internalType": "address",
          "name": "who",
          "type": "address"
        }
      ],
      "name": "trustedMemberDetails",
      "outputs": [
        {
          "components": [
            {
              "internalType": "address",
              "name": "person",
              "type": "address"
            },
            {
              "internalType": "string",
              "name": "name",
              "type": "string"
            },
            {
              "internalType": "uint256",
              "name": "aadharNumber",
              "type": "uint256"
            },
            {
              "internalType": "uint256",
              "name": "phoneNumber",
              "type": "uint256"
            },
            {
              "internalType": "string",
              "name": "email",
              "type": "string"
            }
          ],
          "internalType": "struct LandAdministration.person",
          "name": "",
          "type": "tuple"
        }
      ],
      "stateMutability": "view",
      "type": "function"
    }
  ],
  "bytecode": "0x60806040526001600255348015601457600080fd5b50336000806101000a81548173ffffffffffffffffffffffffffffffffffffffff021916908373ffffffffffffffffffffffffffffffffffffffff1602179055506141d4806100646000396000f3fe6080604052600436106101095760003560e01c8063a2ceb08911610095578063b6596d3c11610064578063b6596d3c14610386578063d49f5ee1146103c6578063d717229b14610403578063dfe28fbf1461042c578063fb38c7751461044857610109565b8063a2ceb089146102b2578063a584ab29146102ce578063b180fb9f1461030b578063b25645691461034957610109565b80635c7b835c116100dc5780635c7b835c146101dc5780636554cb65146102055780637ed11e62146102425780639297520b1461025e5780639d2df9261461028757610109565b80632205ee6c1461010e5780633d0673d41461013757806349dbfe8214610162578063548427471461019f575b600080fd5b34801561011a57600080fd5b5061013560048036038101906101309190612cb6565b610485565b005b34801561014357600080fd5b5061014c6107b4565b6040516101599190612d18565b60405180910390f35b34801561016e57600080fd5b5061018960048036038101906101849190612d91565b6107be565b6040516101969190612dd9565b60405180910390f35b3480156101ab57600080fd5b506101c660048036038101906101c19190612df4565b6107d0565b6040516101d39190612e43565b60405180910390f35b3480156101e857600080fd5b5061020360048036038101906101fe9190612d91565b610839565b005b34801561021157600080fd5b5061022c60048036038101906102279190612df4565b61090b565b6040516102399190612dd9565b60405180910390f35b61025c60048036038101906102579190612df4565b61093a565b005b34801561026a57600080fd5b5061028560048036038101906102809190612fa4565b611257565b005b34801561029357600080fd5b5061029c6115e6565b6040516102a991906131b6565b60405180910390f35b6102cc60048036038101906102c791906131d8565b6116cf565b005b3480156102da57600080fd5b506102f560048036038101906102f0919061323f565b611961565b604051610302919061331b565b60405180910390f35b34801561031757600080fd5b50610332600480360381019061032d9190612d91565b611a02565b60405161034092919061349b565b60405180910390f35b34801561035557600080fd5b50610370600480360381019061036b919061323f565b611c98565b60405161037d9190612dd9565b60405180910390f35b34801561039257600080fd5b506103ad60048036038101906103a8919061323f565b611cc2565b6040516103bd94939291906134e1565b60405180910390f35b3480156103d257600080fd5b506103ed60048036038101906103e89190612d91565b611d30565b6040516103fa9190613622565b60405180910390f35b34801561040f57600080fd5b5061042a60048036038101906104259190613644565b611fa5565b005b61044660048036038101906104419190613723565b6121a9565b005b34801561045457600080fd5b5061046f600480360381019061046a919061323f565b612266565b60405161047c91906137d4565b60405180910390f35b6005600084815260200190815260200160002060009054906101000a900460ff166104e757826040517fb4e9fe9a0000000000000000000000000000000000000000000000000000000081526004016104de9190612d18565b60405180910390fd5b6104f18333612453565b6105345782336040517fde4c669300000000000000000000000000000000000000000000000000000000815260040161052b9291906137f6565b60405180910390fd5b600061054084336107d0565b90508161ffff168161ffff16101561059557833382846040517f7fdb389100000000000000000000000000000000000000000000000000000000815260040161058c949392919061381f565b60405180910390fd5b600b600085815260200190815260200160002060003373ffffffffffffffffffffffffffffffffffffffff1673ffffffffffffffffffffffffffffffffffffffff16815260200190815260200160002060009054906101000a900460ff1615610633576040517f08c379a000000000000000000000000000000000000000000000000000000000815260040161062a906138e7565b60405180910390fd5b600c60405180608001604052803373ffffffffffffffffffffffffffffffffffffffff1681526020018681526020018461ffff16815260200185815250908060018154018082558091505060019003906000526020600020906004020160009091909190915060008201518160000160006101000a81548173ffffffffffffffffffffffffffffffffffffffff021916908373ffffffffffffffffffffffffffffffffffffffff1602179055506020820151816001015560408201518160020160006101000a81548161ffff021916908361ffff1602179055506060820151816003015550506001600b600086815260200190815260200160002060003373ffffffffffffffffffffffffffffffffffffffff1673ffffffffffffffffffffffffffffffffffffffff16815260200190815260200160002060006101000a81548160ff02191690831515021790555060016006600086815260200190815260200160002060006101000a81548160ff02191690831515021790555050505050565b6000600254905090565b60006107c98261256e565b9050919050565b60006004600084815260200190815260200160002060008373ffffffffffffffffffffffffffffffffffffffff1673ffffffffffffffffffffffffffffffffffffffff16815260200190815260200160002060009054906101000a900461ffff16905092915050565b60008054906101000a900473ffffffffffffffffffffffffffffffffffffffff1673ffffffffffffffffffffffffffffffffffffffff163373ffffffffffffffffffffffffffffffffffffffff16146108c7576040517f08c379a00000000000000000000000000000000000000000000000000000000081526004016108be90613979565b60405180910390fd5b80600160006101000a81548173ffffffffffffffffffffffffffffffffffffffff021916908373ffffffffffffffffffffffffffffffffffffffff16021790555050565b600b6020528160005260406000206020528060005260406000206000915091509054906101000a900460ff1681565b6006600083815260200190815260200160002060009054906101000a900460ff1661099a576040517f08c379a0000000000000000000000000000000000000000000000000000000008152600401610991906139e5565b60405180910390fd5b6000805b600980549050811015610a32573373ffffffffffffffffffffffffffffffffffffffff16600982815481106109d6576109d5613a05565b5b9060005260206000200160009054906101000a900473ffffffffffffffffffffffffffffffffffffffff1673ffffffffffffffffffffffffffffffffffffffff1603610a255760019150610a32565b808060010191505061099e565b5080610a73576040517f08c379a0000000000000000000000000000000000000000000000000000000008152600401610a6a90613aa6565b60405180910390fd5b6000600c80549050905060005b600c80549050811015610b4b5784600c8281548110610aa257610aa1613a05565b5b906000526020600020906004020160010154148015610b3157508373ffffffffffffffffffffffffffffffffffffffff16600c8281548110610ae757610ae6613a05565b5b906000526020600020906004020160000160009054906101000a900473ffffffffffffffffffffffffffffffffffffffff1673ffffffffffffffffffffffffffffffffffffffff16145b15610b3e57809150610b4b565b8080600101915050610a80565b50600c805490508110610b93576040517f08c379a0000000000000000000000000000000000000000000000000000000008152600401610b8a90613b12565b60405180910390fd5b6000600c8281548110610ba957610ba8613a05565b5b90600052602060002090600402016040518060800160405290816000820160009054906101000a900473ffffffffffffffffffffffffffffffffffffffff1673ffffffffffffffffffffffffffffffffffffffff1673ffffffffffffffffffffffffffffffffffffffff168152602001600182015481526020016002820160009054906101000a900461ffff1661ffff1661ffff16815260200160038201548152505090508060600151341015610c95576040517f08c379a0000000000000000000000000000000000000000000000000000000008152600401610c8c90613b7e565b60405180910390fd5b806000015173ffffffffffffffffffffffffffffffffffffffff166108fc349081150290604051600060405180830381858888f19350505050158015610cdf573d6000803e3d6000fd5b50806040015161ffff16600460008781526020019081526020016000206000836000015173ffffffffffffffffffffffffffffffffffffffff1673ffffffffffffffffffffffffffffffffffffffff16815260200190815260200160002060009054906101000a900461ffff1661ffff161015610d91576040517f08c379a0000000000000000000000000000000000000000000000000000000008152600401610d8890613c10565b60405180910390fd5b8060400151600460008781526020019081526020016000206000836000015173ffffffffffffffffffffffffffffffffffffffff1673ffffffffffffffffffffffffffffffffffffffff16815260200190815260200160002060008282829054906101000a900461ffff16610e069190613c5f565b92506101000a81548161ffff021916908361ffff16021790555080604001516004600087815260200190815260200160002060003373ffffffffffffffffffffffffffffffffffffffff1673ffffffffffffffffffffffffffffffffffffffff16815260200190815260200160002060008282829054906101000a900461ffff16610e919190613c95565b92506101000a81548161ffff021916908361ffff1602179055506000805b6003600088815260200190815260200160002080549050811015610f65573373ffffffffffffffffffffffffffffffffffffffff16600360008981526020019081526020016000208281548110610f0957610f08613a05565b5b9060005260206000200160009054906101000a900473ffffffffffffffffffffffffffffffffffffffff1673ffffffffffffffffffffffffffffffffffffffff1603610f585760019150610f65565b8080600101915050610eaf565b5080610fe05760036000878152602001908152602001600020339080600181540180825580915050600190039060005260206000200160009091909190916101000a81548173ffffffffffffffffffffffffffffffffffffffff021916908373ffffffffffffffffffffffffffffffffffffffff1602179055505b600c6001600c80549050610ff49190613ccb565b8154811061100557611004613a05565b5b9060005260206000209060040201600c848154811061102757611026613a05565b5b90600052602060002090600402016000820160009054906101000a900473ffffffffffffffffffffffffffffffffffffffff168160000160006101000a81548173ffffffffffffffffffffffffffffffffffffffff021916908373ffffffffffffffffffffffffffffffffffffffff160217905550600182015481600101556002820160009054906101000a900461ffff168160020160006101000a81548161ffff021916908361ffff16021790555060038201548160030155905050600c8054806110f6576110f5613cff565b5b6001900381819060005260206000209060040201600080820160006101000a81549073ffffffffffffffffffffffffffffffffffffffff021916905560018201600090556002820160006101000a81549061ffff02191690556003820160009055505090556000600b60008881526020019081526020016000206000846000015173ffffffffffffffffffffffffffffffffffffffff1673ffffffffffffffffffffffffffffffffffffffff16815260200190815260200160002060006101000a81548160ff0219169083151502179055506000805b600c8054905081101561121b5787600c82815481106111ee576111ed613a05565b5b9060005260206000209060040201600101540361120e576001915061121b565b80806001019150506111cc565b508061124e5760006006600089815260200190815260200160002060006101000a81548160ff0219169083151502179055505b50505050505050565b60008054906101000a900473ffffffffffffffffffffffffffffffffffffffff1673ffffffffffffffffffffffffffffffffffffffff163373ffffffffffffffffffffffffffffffffffffffff16146112e5576040517f08c379a00000000000000000000000000000000000000000000000000000000081526004016112dc90613979565b60405180910390fd5b600015156112f28761256e565b15150361133657856040517f754d898600000000000000000000000000000000000000000000000000000000815260040161132d9190613d2e565b60405180910390fd5b600060405180608001604052808781526020018681526020018581526020018481525090506000151561136882612616565b1515146113aa576040517f08c379a00000000000000000000000000000000000000000000000000000000081526004016113a190613d95565b60405180910390fd5b600a81908060018154018082558091505060019003906000526020600020906004020160009091909190915060008201518160000190816113eb9190613fc1565b5060208201518160010190816114019190613fc1565b5060408201518160020190816114179190613fc1565b5060608201518160030155505080600760006002548152602001908152602001600020600082015181600001908161144f9190613fc1565b5060208201518160010190816114659190613fc1565b50604082015181600201908161147b9190613fc1565b5060608201518160030155905050600160056000600254815260200190815260200160002060006101000a81548160ff021916908315150217905550600360006002548152602001908152602001600020879080600181540180825580915050600190039060005260206000200160009091909190916101000a81548173ffffffffffffffffffffffffffffffffffffffff021916908373ffffffffffffffffffffffffffffffffffffffff1602179055508160046000600254815260200190815260200160002060008973ffffffffffffffffffffffffffffffffffffffff1673ffffffffffffffffffffffffffffffffffffffff16815260200190815260200160002060006101000a81548161ffff021916908361ffff160217905550600060066000600254815260200190815260200160002060006101000a81548160ff02191690831515021790555060016002546115d79190614093565b60028190555050505050505050565b6060600c805480602002602001604051908101604052809291908181526020016000905b828210156116c657838290600052602060002090600402016040518060800160405290816000820160009054906101000a900473ffffffffffffffffffffffffffffffffffffffff1673ffffffffffffffffffffffffffffffffffffffff1673ffffffffffffffffffffffffffffffffffffffff168152602001600182015481526020016002820160009054906101000a900461ffff1661ffff1661ffff1681526020016003820154815250508152602001906001019061160a565b50505050905090565b6005600083815260200190815260200160002060009054906101000a900460ff1661173157816040517fb4e9fe9a0000000000000000000000000000000000000000000000000000000081526004016117289190612d18565b60405180910390fd5b60008054906101000a900473ffffffffffffffffffffffffffffffffffffffff1673ffffffffffffffffffffffffffffffffffffffff163373ffffffffffffffffffffffffffffffffffffffff16148061179157506117908285612453565b5b6117d45781846040517fde4c66930000000000000000000000000000000000000000000000000000000081526004016117cb9291906137f6565b60405180910390fd5b8061ffff166117e383866107d0565b61ffff1610156118395781846117f984876107d0565b836040517f7fdb3891000000000000000000000000000000000000000000000000000000008152600401611830949392919061381f565b60405180910390fd5b806004600084815260200190815260200160002060008673ffffffffffffffffffffffffffffffffffffffff1673ffffffffffffffffffffffffffffffffffffffff16815260200190815260200160002060008282829054906101000a900461ffff166118a69190613c5f565b92506101000a81548161ffff021916908361ffff160217905550806004600084815260200190815260200160002060008573ffffffffffffffffffffffffffffffffffffffff1673ffffffffffffffffffffffffffffffffffffffff16815260200190815260200160002060008282829054906101000a900461ffff1661192d9190613c95565b92506101000a81548161ffff021916908361ffff160217905550611951828461284e565b61195b82856128d5565b50505050565b6060600360008381526020019081526020016000208054806020026020016040519081016040528092919081815260200182805480156119f657602002820191906000526020600020905b8160009054906101000a900473ffffffffffffffffffffffffffffffffffffffff1673ffffffffffffffffffffffffffffffffffffffff16815260200190600101908083116119ac575b50505050509050919050565b60608060006001600254611a169190613ccb565b9050600080600190505b828111611ab45760006004600083815260200190815260200160002060008873ffffffffffffffffffffffffffffffffffffffff1673ffffffffffffffffffffffffffffffffffffffff16815260200190815260200160002060009054906101000a900461ffff1661ffff161115611aa1578180611a9d906140c7565b9250505b8080611aac906140c7565b915050611a20565b508067ffffffffffffffff811115611acf57611ace612e79565b5b604051908082528060200260200182016040528015611afd5781602001602082028036833780820191505090505b5093508067ffffffffffffffff811115611b1a57611b19612e79565b5b604051908082528060200260200182016040528015611b485781602001602082028036833780820191505090505b509250600080600190505b838111611c8f5760006004600083815260200190815260200160002060008973ffffffffffffffffffffffffffffffffffffffff1673ffffffffffffffffffffffffffffffffffffffff16815260200190815260200160002060009054906101000a900461ffff1661ffff161115611c7c5780868381518110611bd957611bd8613a05565b5b6020026020010181815250506004600082815260200190815260200160002060008873ffffffffffffffffffffffffffffffffffffffff1673ffffffffffffffffffffffffffffffffffffffff16815260200190815260200160002060009054906101000a900461ffff16858381518110611c5757611c56613a05565b5b602002602001019061ffff16908161ffff16815250508180611c78906140c7565b9250505b8080611c87906140c7565b915050611b53565b50505050915091565b60006005600083815260200190815260200160002060009054906101000a900460ff169050919050565b600c8181548110611cd257600080fd5b90600052602060002090600402016000915090508060000160009054906101000a900473ffffffffffffffffffffffffffffffffffffffff16908060010154908060020160009054906101000a900461ffff16908060030154905084565b611d38612bc5565b60008054906101000a900473ffffffffffffffffffffffffffffffffffffffff1673ffffffffffffffffffffffffffffffffffffffff163373ffffffffffffffffffffffffffffffffffffffff1614611dc6576040517f08c379a0000000000000000000000000000000000000000000000000000000008152600401611dbd90613979565b60405180910390fd5b600860008373ffffffffffffffffffffffffffffffffffffffff1673ffffffffffffffffffffffffffffffffffffffff1681526020019081526020016000206040518060a00160405290816000820160009054906101000a900473ffffffffffffffffffffffffffffffffffffffff1673ffffffffffffffffffffffffffffffffffffffff1673ffffffffffffffffffffffffffffffffffffffff168152602001600182018054611e7690613de4565b80601f0160208091040260200160405190810160405280929190818152602001828054611ea290613de4565b8015611eef5780601f10611ec457610100808354040283529160200191611eef565b820191906000526020600020905b815481529060010190602001808311611ed257829003601f168201915b505050505081526020016002820154815260200160038201548152602001600482018054611f1c90613de4565b80601f0160208091040260200160405190810160405280929190818152602001828054611f4890613de4565b8015611f955780601f10611f6a57610100808354040283529160200191611f95565b820191906000526020600020905b815481529060010190602001808311611f7857829003601f168201915b5050505050815250509050919050565b60008054906101000a900473ffffffffffffffffffffffffffffffffffffffff1673ffffffffffffffffffffffffffffffffffffffff163373ffffffffffffffffffffffffffffffffffffffff1614612033576040517f08c379a000000000000000000000000000000000000000000000000000000000815260040161202a90613979565b60405180910390fd5b60006040518060a001604052808773ffffffffffffffffffffffffffffffffffffffff1681526020018681526020018581526020018481526020018381525090506009869080600181540180825580915050600190039060005260206000200160009091909190916101000a81548173ffffffffffffffffffffffffffffffffffffffff021916908373ffffffffffffffffffffffffffffffffffffffff16021790555080600860008873ffffffffffffffffffffffffffffffffffffffff1673ffffffffffffffffffffffffffffffffffffffff16815260200190815260200160002060008201518160000160006101000a81548173ffffffffffffffffffffffffffffffffffffffff021916908373ffffffffffffffffffffffffffffffffffffffff16021790555060208201518160010190816121739190613fc1565b506040820151816002015560608201518160030155608082015181600401908161219d9190613fc1565b50905050505050505050565b60008054906101000a900473ffffffffffffffffffffffffffffffffffffffff1673ffffffffffffffffffffffffffffffffffffffff163373ffffffffffffffffffffffffffffffffffffffff1614612237576040517f08c379a000000000000000000000000000000000000000000000000000000000815260040161222e90613979565b60405180910390fd5b806005600084815260200190815260200160002060006101000a81548160ff0219169083151502179055505050565b61226e612c0a565b6007600083815260200190815260200160002060405180608001604052908160008201805461229c90613de4565b80601f01602080910402602001604051908101604052809291908181526020018280546122c890613de4565b80156123155780601f106122ea57610100808354040283529160200191612315565b820191906000526020600020905b8154815290600101906020018083116122f857829003601f168201915b5050505050815260200160018201805461232e90613de4565b80601f016020809104026020016040519081016040528092919081815260200182805461235a90613de4565b80156123a75780601f1061237c576101008083540402835291602001916123a7565b820191906000526020600020905b81548152906001019060200180831161238a57829003601f168201915b505050505081526020016002820180546123c090613de4565b80601f01602080910402602001604051908101604052809291908181526020018280546123ec90613de4565b80156124395780601f1061240e57610100808354040283529160200191612439565b820191906000526020600020905b81548152906001019060200180831161241c57829003601f168201915b505050505081526020016003820154815250509050919050565b600080600360008581526020019081526020016000208054806020026020016040519081016040528092919081815260200182805480156124e957602002820191906000526020600020905b8160009054906101000a900473ffffffffffffffffffffffffffffffffffffffff1673ffffffffffffffffffffffffffffffffffffffff168152602001906001019080831161249f575b5050505050905060005b8151811015612561578373ffffffffffffffffffffffffffffffffffffffff1682828151811061252657612525613a05565b5b602002602001015173ffffffffffffffffffffffffffffffffffffffff160361255457600192505050612568565b80806001019150506124f3565b5060009150505b92915050565b600080600090505b60098054905081101561260b578273ffffffffffffffffffffffffffffffffffffffff16600982815481106125ae576125ad613a05565b5b9060005260206000200160009054906101000a900473ffffffffffffffffffffffffffffffffffffffff1673ffffffffffffffffffffffffffffffffffffffff16036125fe576001915050612611565b8080600101915050612576565b50600090505b919050565b600080600090505b600a80549050811015612843576001151561282584600a848154811061264757612646613a05565b5b906000526020600020906004020160405180608001604052908160008201805461267090613de4565b80601f016020809104026020016040519081016040528092919081815260200182805461269c90613de4565b80156126e95780601f106126be576101008083540402835291602001916126e9565b820191906000526020600020905b8154815290600101906020018083116126cc57829003601f168201915b5050505050815260200160018201805461270290613de4565b80601f016020809104026020016040519081016040528092919081815260200182805461272e90613de4565b801561277b5780601f106127505761010080835404028352916020019161277b565b820191906000526020600020905b81548152906001019060200180831161275e57829003601f168201915b5050505050815260200160028201805461279490613de4565b80601f01602080910402602001604051908101604052809291908181526020018280546127c090613de4565b801561280d5780601f106127e25761010080835404028352916020019161280d565b820191906000526020600020905b8154815290600101906020018083116127f057829003601f168201915b50505050508152602001600382015481525050612959565b151503612836576001915050612849565b808060010191505061261e565b50600090505b919050565b6128588282612453565b6128d15760036000838152602001908152602001600020819080600181540180825580915050600190039060005260206000200160009091909190916101000a81548173ffffffffffffffffffffffffffffffffffffffff021916908373ffffffffffffffffffffffffffffffffffffffff1602179055505b5050565b60006128e183836107d0565b61ffff16036129555760006128f68383612adc565b9050600181146129535760036000848152602001908152602001600020818154811061292557612924613a05565b5b9060005260206000200160006101000a81549073ffffffffffffffffffffffffffffffffffffffff02191690555b505b5050565b6000808260000151604051602001612971919061414b565b60405160208183030381529060405280519060200120846000015160405160200161299c919061414b565b60405160208183030381529060405280519060200120148015612a12575082602001516040516020016129cf919061414b565b6040516020818303038152906040528051906020012084602001516040516020016129fa919061414b565b60405160208183030381529060405280519060200120145b8015612a7157508260400151604051602001612a2e919061414b565b604051602081830303815290604052805190602001208460400151604051602001612a59919061414b565b60405160208183030381529060405280519060200120145b8015612ad057508260600151604051602001612a8d9190614183565b604051602081830303815290604052805190602001208460600151604051602001612ab89190614183565b60405160208183030381529060405280519060200120145b90508091505092915050565b600080600090505b6003600085815260200190815260200160002080549050811015612b9a57600360008581526020019081526020016000208181548110612b2757612b26613a05565b5b9060005260206000200160009054906101000a900473ffffffffffffffffffffffffffffffffffffffff1673ffffffffffffffffffffffffffffffffffffffff168373ffffffffffffffffffffffffffffffffffffffff1603612b8d5780915050612bbf565b8080600101915050612ae4565b507fffffffffffffffffffffffffffffffffffffffffffffffffffffffffffffffff90505b92915050565b6040518060a00160405280600073ffffffffffffffffffffffffffffffffffffffff168152602001606081526020016000815260200160008152602001606081525090565b6040518060800160405280606081526020016060815260200160608152602001600081525090565b6000604051905090565b600080fd5b600080fd5b6000819050919050565b612c5981612c46565b8114612c6457600080fd5b50565b600081359050612c7681612c50565b92915050565b600061ffff82169050919050565b612c9381612c7c565b8114612c9e57600080fd5b50565b600081359050612cb081612c8a565b92915050565b600080600060608486031215612ccf57612cce612c3c565b5b6000612cdd86828701612c67565b9350506020612cee86828701612c67565b9250506040612cff86828701612ca1565b9150509250925092565b612d1281612c46565b82525050565b6000602082019050612d2d6000830184612d09565b92915050565b600073ffffffffffffffffffffffffffffffffffffffff82169050919050565b6000612d5e82612d33565b9050919050565b612d6e81612d53565b8114612d7957600080fd5b50565b600081359050612d8b81612d65565b92915050565b600060208284031215612da757612da6612c3c565b5b6000612db584828501612d7c565b91505092915050565b60008115159050919050565b612dd381612dbe565b82525050565b6000602082019050612dee6000830184612dca565b92915050565b60008060408385031215612e0b57612e0a612c3c565b5b6000612e1985828601612c67565b9250506020612e2a85828601612d7c565b9150509250929050565b612e3d81612c7c565b82525050565b6000602082019050612e586000830184612e34565b92915050565b600080fd5b600080fd5b6000601f19601f8301169050919050565b7f4e487b7100000000000000000000000000000000000000000000000000000000600052604160045260246000fd5b612eb182612e68565b810181811067ffffffffffffffff82111715612ed057612ecf612e79565b5b80604052505050565b6000612ee3612c32565b9050612eef8282612ea8565b919050565b600067ffffffffffffffff821115612f0f57612f0e612e79565b5b612f1882612e68565b9050602081019050919050565b82818337600083830152505050565b6000612f47612f4284612ef4565b612ed9565b905082815260208101848484011115612f6357612f62612e63565b5b612f6e848285612f25565b509392505050565b600082601f830112612f8b57612f8a612e5e565b5b8135612f9b848260208601612f34565b91505092915050565b60008060008060008060c08789031215612fc157612fc0612c3c565b5b6000612fcf89828a01612d7c565b965050602087013567ffffffffffffffff811115612ff057612fef612c41565b5b612ffc89828a01612f76565b955050604087013567ffffffffffffffff81111561301d5761301c612c41565b5b61302989828a01612f76565b945050606087013567ffffffffffffffff81111561304a57613049612c41565b5b61305689828a01612f76565b935050608061306789828a01612c67565b92505060a061307889828a01612ca1565b9150509295509295509295565b600081519050919050565b600082825260208201905092915050565b6000819050602082019050919050565b6130ba81612d53565b82525050565b6130c981612c46565b82525050565b6130d881612c7c565b82525050565b6080820160008201516130f460008501826130b1565b50602082015161310760208501826130c0565b50604082015161311a60408501826130cf565b50606082015161312d60608501826130c0565b50505050565b600061313f83836130de565b60808301905092915050565b6000602082019050919050565b600061316382613085565b61316d8185613090565b9350613178836130a1565b8060005b838110156131a95781516131908882613133565b975061319b8361314b565b92505060018101905061317c565b5085935050505092915050565b600060208201905081810360008301526131d08184613158565b905092915050565b600080600080608085870312156131f2576131f1612c3c565b5b600061320087828801612d7c565b945050602061321187828801612d7c565b935050604061322287828801612c67565b925050606061323387828801612ca1565b91505092959194509250565b60006020828403121561325557613254612c3c565b5b600061326384828501612c67565b91505092915050565b600081519050919050565b600082825260208201905092915050565b6000819050602082019050919050565b60006132a483836130b1565b60208301905092915050565b6000602082019050919050565b60006132c88261326c565b6132d28185613277565b93506132dd83613288565b8060005b8381101561330e5781516132f58882613298565b9750613300836132b0565b9250506001810190506132e1565b5085935050505092915050565b6000602082019050818103600083015261333581846132bd565b905092915050565b600081519050919050565b600082825260208201905092915050565b6000819050602082019050919050565b600061337583836130c0565b60208301905092915050565b6000602082019050919050565b60006133998261333d565b6133a38185613348565b93506133ae83613359565b8060005b838110156133df5781516133c68882613369565b97506133d183613381565b9250506001810190506133b2565b5085935050505092915050565b600081519050919050565b600082825260208201905092915050565b6000819050602082019050919050565b600061342483836130cf565b60208301905092915050565b6000602082019050919050565b6000613448826133ec565b61345281856133f7565b935061345d83613408565b8060005b8381101561348e5781516134758882613418565b975061348083613430565b925050600181019050613461565b5085935050505092915050565b600060408201905081810360008301526134b5818561338e565b905081810360208301526134c9818461343d565b90509392505050565b6134db81612d53565b82525050565b60006080820190506134f660008301876134d2565b6135036020830186612d09565b6135106040830185612e34565b61351d6060830184612d09565b95945050505050565b600081519050919050565b600082825260208201905092915050565b60005b83811015613560578082015181840152602081019050613545565b60008484015250505050565b600061357782613526565b6135818185613531565b9350613591818560208601613542565b61359a81612e68565b840191505092915050565b600060a0830160008301516135bd60008601826130b1565b50602083015184820360208601526135d5828261356c565b91505060408301516135ea60408601826130c0565b5060608301516135fd60608601826130c0565b5060808301518482036080860152613615828261356c565b9150508091505092915050565b6000602082019050818103600083015261363c81846135a5565b905092915050565b600080600080600060a086880312156136605761365f612c3c565b5b600061366e88828901612d7c565b955050602086013567ffffffffffffffff81111561368f5761368e612c41565b5b61369b88828901612f76565b94505060406136ac88828901612c67565b93505060606136bd88828901612c67565b925050608086013567ffffffffffffffff8111156136de576136dd612c41565b5b6136ea88828901612f76565b9150509295509295909350565b61370081612dbe565b811461370b57600080fd5b50565b60008135905061371d816136f7565b92915050565b6000806040838503121561373a57613739612c3c565b5b600061374885828601612c67565b92505060206137598582860161370e565b9150509250929050565b60006080830160008301518482036000860152613780828261356c565b9150506020830151848203602086015261379a828261356c565b915050604083015184820360408601526137b4828261356c565b91505060608301516137c960608601826130c0565b508091505092915050565b600060208201905081810360008301526137ee8184613763565b905092915050565b600060408201905061380b6000830185612d09565b61381860208301846134d2565b9392505050565b60006080820190506138346000830187612d09565b61384160208301866134d2565b61384e6040830185612e34565b61385b6060830184612e34565b95945050505050565b600082825260208201905092915050565b7f596f75206861766520616c726561647920706f7374656420796f75722073686160008201527f726520666f722074686973206c616e6400000000000000000000000000000000602082015250565b60006138d1603083613864565b91506138dc82613875565b604082019050919050565b60006020820190508181036000830152613900816138c4565b9050919050565b7f736f727279206f6e6c7920746865206d61737465722063616e2063616c6c207460008201527f6869732066756e6374696f6e0000000000000000000000000000000000000000602082015250565b6000613963602c83613864565b915061396e82613907565b604082019050919050565b6000602082019050818103600083015261399281613956565b9050919050565b7f54686973206c616e64206973206e6f7420666f722073616c6500000000000000600082015250565b60006139cf601983613864565b91506139da82613999565b602082019050919050565b600060208201905081810360008301526139fe816139c2565b9050919050565b7f4e487b7100000000000000000000000000000000000000000000000000000000600052603260045260246000fd5b7f4f6e6c792074727573746564206d656d626572732063616e20627579206c616e60008201527f6400000000000000000000000000000000000000000000000000000000000000602082015250565b6000613a90602183613864565b9150613a9b82613a34565b604082019050919050565b60006020820190508181036000830152613abf81613a83565b9050919050565b7f4c616e6420706f7374206e6f7420666f756e6400000000000000000000000000600082015250565b6000613afc601383613864565b9150613b0782613ac6565b602082019050919050565b60006020820190508181036000830152613b2b81613aef565b9050919050565b7f496e636f72726563742045544820616d6f756e742073656e7400000000000000600082015250565b6000613b68601983613864565b9150613b7382613b32565b602082019050919050565b60006020820190508181036000830152613b9781613b5b565b9050919050565b7f53656c6c657220646f6573206e6f74206861766520656e6f756768207368617260008201527f6500000000000000000000000000000000000000000000000000000000000000602082015250565b6000613bfa602183613864565b9150613c0582613b9e565b604082019050919050565b60006020820190508181036000830152613c2981613bed565b9050919050565b7f4e487b7100000000000000000000000000000000000000000000000000000000600052601160045260246000fd5b6000613c6a82612c7c565b9150613c7583612c7c565b9250828203905061ffff811115613c8f57613c8e613c30565b5b92915050565b6000613ca082612c7c565b9150613cab83612c7c565b9250828201905061ffff811115613cc557613cc4613c30565b5b92915050565b6000613cd682612c46565b9150613ce183612c46565b9250828203905081811115613cf957613cf8613c30565b5b92915050565b7f4e487b7100000000000000000000000000000000000000000000000000000000600052603160045260246000fd5b6000602082019050613d4360008301846134d2565b92915050565b7f736f72727920746865206c616e6420616c726561647920657869737473000000600082015250565b6000613d7f601d83613864565b9150613d8a82613d49565b602082019050919050565b60006020820190508181036000830152613dae81613d72565b9050919050565b7f4e487b7100000000000000000000000000000000000000000000000000000000600052602260045260246000fd5b60006002820490506001821680613dfc57607f821691505b602082108103613e0f57613e0e613db5565b5b50919050565b60008190508160005260206000209050919050565b60006020601f8301049050919050565b600082821b905092915050565b600060088302613e777fffffffffffffffffffffffffffffffffffffffffffffffffffffffffffffffff82613e3a565b613e818683613e3a565b95508019841693508086168417925050509392505050565b6000819050919050565b6000613ebe613eb9613eb484612c46565b613e99565b612c46565b9050919050565b6000819050919050565b613ed883613ea3565b613eec613ee482613ec5565b848454613e47565b825550505050565b600090565b613f01613ef4565b613f0c818484613ecf565b505050565b5b81811015613f3057613f25600082613ef9565b600181019050613f12565b5050565b601f821115613f7557613f4681613e15565b613f4f84613e2a565b81016020851015613f5e578190505b613f72613f6a85613e2a565b830182613f11565b50505b505050565b600082821c905092915050565b6000613f9860001984600802613f7a565b1980831691505092915050565b6000613fb18383613f87565b9150826002028217905092915050565b613fca82613526565b67ffffffffffffffff811115613fe357613fe2612e79565b5b613fed8254613de4565b613ff8828285613f34565b600060209050601f83116001811461402b5760008415614019578287015190505b6140238582613fa5565b86555061408b565b601f19841661403986613e15565b60005b828110156140615784890151825560018201915060208501945060208101905061403c565b8683101561407e578489015161407a601f891682613f87565b8355505b6001600288020188555050505b505050505050565b600061409e82612c46565b91506140a983612c46565b92508282019050808211156140c1576140c0613c30565b5b92915050565b60006140d282612c46565b91507fffffffffffffffffffffffffffffffffffffffffffffffffffffffffffffffff820361410457614103613c30565b5b600182019050919050565b600081905092915050565b600061412582613526565b61412f818561410f565b935061413f818560208601613542565b80840191505092915050565b6000614157828461411a565b915081905092915050565b6000819050919050565b61417d61417882612c46565b614162565b82525050565b600061418f828461416c565b6020820191508190509291505056fea26469706673582212203425c99b5f86dab05cc9c889c0e039ec4d68e2b04ad0cd0fca70e8177afe96ce64736f6c634300081c0033",
  "linkReferences": {},
  "deployedLinkReferences": {}
}